:100000000C942A000C9434000C9434000C943400AA
:100010000C9434000C9434000C9434000C94340090
:100020000C9434000C9434000C9434000C94340080
:100030000C9434000C9434000C9434000C94340070
:100040000C9434000C9434000C9434000C94340060
:100050000C94340011241FBECFE5D8E0DEBFCDBF25
:100060000E943C000C94A7000C94000087B38F60A2
:1000700087BB88B388BB08950E94360080E895E26C
:100080000E945A000E946100863611F0863439F4CD
:10009000C8E5D2E00E9486002197E1F7F3CF8236CF
:1000A00011F0823479F7C8E5D2E00E94650021970B
:1000B000E1F7E8CF89B990BD86E880BD88E18AB9CB
:1000C00008955F9BFECF8CB1089581E088BB89EFD6
:1000D00090E00197F1F700C0000084E088BB89EF51
:1000E00090E00197F1F700C0000082E088BB89EF43
:1000F00090E00197F1F700C0000088E088BB89EF2D
:1001000090E00197F1F700C00000089588E088BBF7
:1001100089EF90E00197F1F700C0000082E088BB12
:1001200089EF90E00197F1F700C0000084E088BB00
:1001300089EF90E00197F1F700C0000081E088BBF3
:1001400089EF90E00197F1F700C000000895F8945E
:02015000FFCFDF
:00000001FF
